{
  "contractName": "main",
  "abi": [
    {
      "anonymous": false,
      "inputs": [
        {
          "indexed": true,
          "internalType": "address",
          "name": "account",
          "type": "address"
        }
      ],
      "name": "DistributorAdded",
      "type": "event"
    },
    {
      "anonymous": false,
      "inputs": [
        {
          "indexed": true,
          "internalType": "address",
          "name": "account",
          "type": "address"
        }
      ],
      "name": "DistributorRemoved",
      "type": "event"
    },
    {
      "anonymous": false,
      "inputs": [
        {
          "indexed": false,
          "internalType": "string",
          "name": "batchno",
          "type": "string"
        }
      ],
      "name": "Made",
      "type": "event"
    },
    {
      "anonymous": false,
      "inputs": [
        {
          "indexed": true,
          "internalType": "address",
          "name": "account",
          "type": "address"
        }
      ],
      "name": "ManufacturerAdded",
      "type": "event"
    },
    {
      "anonymous": false,
      "inputs": [
        {
          "indexed": true,
          "internalType": "address",
          "name": "account",
          "type": "address"
        }
      ],
      "name": "ManufacturerRemoved",
      "type": "event"
    },
    {
      "anonymous": false,
      "inputs": [
        {
          "indexed": false,
          "internalType": "string",
          "name": "batchno",
          "type": "string"
        }
      ],
      "name": "Packed",
      "type": "event"
    },
    {
      "anonymous": false,
      "inputs": [
        {
          "indexed": false,
          "internalType": "string",
          "name": "batchno",
          "type": "string"
        }
      ],
      "name": "Sold",
      "type": "event"
    },
    {
      "anonymous": false,
      "inputs": [
        {
          "indexed": true,
          "internalType": "address",
          "name": "account",
          "type": "address"
        }
      ],
      "name": "UserAdded",
      "type": "event"
    },
    {
      "anonymous": false,
      "inputs": [
        {
          "indexed": true,
          "internalType": "address",
          "name": "account",
          "type": "address"
        }
      ],
      "name": "UserRemoved",
      "type": "event"
    },
    {
      "constant": false,
      "inputs": [
        {
          "internalType": "address",
          "name": "account",
          "type": "address"
        }
      ],
      "name": "addDistributor",
      "outputs": [],
      "payable": false,
      "stateMutability": "nonpayable",
      "type": "function"
    },
    {
      "constant": false,
      "inputs": [
        {
          "internalType": "address",
          "name": "account",
          "type": "address"
        }
      ],
      "name": "addManufacturer",
      "outputs": [],
      "payable": false,
      "stateMutability": "nonpayable",
      "type": "function"
    },
    {
      "constant": false,
      "inputs": [
        {
          "internalType": "address",
          "name": "account",
          "type": "address"
        }
      ],
      "name": "addUser",
      "outputs": [],
      "payable": false,
      "stateMutability": "nonpayable",
      "type": "function"
    },
    {
      "constant": true,
      "inputs": [
        {
          "internalType": "address",
          "name": "account",
          "type": "address"
        }
      ],
      "name": "isDistributor",
      "outputs": [
        {
          "internalType": "bool",
          "name": "",
          "type": "bool"
        }
      ],
      "payable": false,
      "stateMutability": "view",
      "type": "function"
    },
    {
      "constant": true,
      "inputs": [
        {
          "internalType": "address",
          "name": "account",
          "type": "address"
        }
      ],
      "name": "isManufacturer",
      "outputs": [
        {
          "internalType": "bool",
          "name": "",
          "type": "bool"
        }
      ],
      "payable": false,
      "stateMutability": "view",
      "type": "function"
    },
    {
      "constant": true,
      "inputs": [
        {
          "internalType": "address",
          "name": "account",
          "type": "address"
        }
      ],
      "name": "isUser",
      "outputs": [
        {
          "internalType": "bool",
          "name": "",
          "type": "bool"
        }
      ],
      "payable": false,
      "stateMutability": "view",
      "type": "function"
    },
    {
      "constant": false,
      "inputs": [],
      "name": "renounceDistributor",
      "outputs": [],
      "payable": false,
      "stateMutability": "nonpayable",
      "type": "function"
    },
    {
      "constant": false,
      "inputs": [],
      "name": "renounceManufacturer",
      "outputs": [],
      "payable": false,
      "stateMutability": "nonpayable",
      "type": "function"
    },
    {
      "constant": false,
      "inputs": [],
      "name": "renounceUser",
      "outputs": [],
      "payable": false,
      "stateMutability": "nonpayable",
      "type": "function"
    },
    {
      "constant": false,
      "inputs": [
        {
          "internalType": "string",
          "name": "_batchno",
          "type": "string"
        },
        {
          "internalType": "string",
          "name": "_medicineName",
          "type": "string"
        },
        {
          "internalType": "address",
          "name": "_originManufacturerID",
          "type": "address"
        },
        {
          "internalType": "string",
          "name": "_FactoryName",
          "type": "string"
        },
        {
          "internalType": "string",
          "name": "_mfgdate",
          "type": "string"
        },
        {
          "internalType": "string",
          "name": "_expdate",
          "type": "string"
        },
        {
          "internalType": "address",
          "name": "_distributorID",
          "type": "address"
        },
        {
          "internalType": "address",
          "name": "_userID",
          "type": "address"
        }
      ],
      "name": "makeMedicine",
      "outputs": [],
      "payable": false,
      "stateMutability": "nonpayable",
      "type": "function"
    },
    {
      "constant": false,
      "inputs": [
        {
          "internalType": "string",
          "name": "_batchno",
          "type": "string"
        }
      ],
      "name": "packMedicine",
      "outputs": [],
      "payable": false,
      "stateMutability": "nonpayable",
      "type": "function"
    },
    {
      "constant": false,
      "inputs": [
        {
          "internalType": "string",
          "name": "_batchno",
          "type": "string"
        }
      ],
      "name": "receiveMedicine",
      "outputs": [],
      "payable": false,
      "stateMutability": "nonpayable",
      "type": "function"
    },
    {
      "constant": true,
      "inputs": [
        {
          "internalType": "string",
          "name": "_batchno",
          "type": "string"
        }
      ],
      "name": "fetchMedicineBufferOne",
      "outputs": [
        {
          "internalType": "string",
          "name": "batchno",
          "type": "string"
        },
        {
          "internalType": "string",
          "name": "medicineName",
          "type": "string"
        },
        {
          "internalType": "address",
          "name": "ownerID",
          "type": "address"
        },
        {
          "internalType": "address",
          "name": "originManufacturerID",
          "type": "address"
        },
        {
          "internalType": "string",
          "name": "FactoryName",
          "type": "string"
        },
        {
          "internalType": "string",
          "name": "mfgdate",
          "type": "string"
        },
        {
          "internalType": "string",
          "name": "expdate",
          "type": "string"
        }
      ],
      "payable": false,
      "stateMutability": "view",
      "type": "function"
    }
  ],
  "bytecode": "0x608060405262000015336200003d60201b60201c565b62000026336200009b60201b60201c565b6200003733620000f960201b60201c565b620002a0565b620000556000826200015760201b62001b261760201c565b8073ffffffffffffffffffffffffffffffffffffffff167f19ef9a4877199f89440a26acb26895ec02ed86f2df1aeaa90dc18041b892f71f60405160405180910390a250565b620000b36001826200015760201b62001b261760201c565b8073ffffffffffffffffffffffffffffffffffffffff167f561138658ca49a8540dc70dcfe64c9026c1c5b9344642242dd6562970f9c127860405160405180910390a250565b620001116002826200015760201b62001b261760201c565b8073ffffffffffffffffffffffffffffffffffffffff167fddbf200aa634dc3fb81cfd68583dd1040d1c751d335e1d86b631bde3e977fea860405160405180910390a250565b600073ffffffffffffffffffffffffffffffffffffffff168173ffffffffffffffffffffffffffffffffffffffff1614156200019257600080fd5b620001a482826200020d60201b60201c565b15620001af57600080fd5b60018260000160008373ffffffffffffffffffffffffffffffffffffffff1673ffffffffffffffffffffffffffffffffffffffff16815260200190815260200160002060006101000a81548160ff0219169083151502179055505050565b60008073ffffffffffffffffffffffffffffffffffffffff168273ffffffffffffffffffffffffffffffffffffffff1614156200024957600080fd5b8260000160008373ffffffffffffffffffffffffffffffffffffffff1673ffffffffffffffffffffffffffffffffffffffff16815260200190815260200160002060009054906101000a900460ff16905092915050565b611e0d80620002b06000396000f3fe608060405234801561001057600080fd5b50600436106100ce5760003560e01c8063644241db1161008c5780638f0c86fa116100665780638f0c86fa146109de578063de07f34e14610a3a578063e5e93deb14610a44578063fb8868ae14610a4e576100ce565b8063644241db146106465780636fd0ab41146106505780637250e2241461099a576100ce565b8062a0cb3f146100d357806317d4a4911461044b5780634209fff1146104a7578063421b2d8b146105035780635f1d5a8d146105475780635f8a5afa14610602575b600080fd5b61044960048036036101008110156100ea57600080fd5b810190808035906020019064010000000081111561010757600080fd5b82018360208201111561011957600080fd5b8035906020019184600183028401116401000000008311171561013b57600080fd5b91908080601f016020809104026020016040519081016040528093929190818152602001838380828437600081840152601f19601f8201169050808301925050505050505091929192908035906020019064010000000081111561019e57600080fd5b8201836020820111156101b057600080fd5b803590602001918460018302840111640100000000831117156101d257600080fd5b91908080601f016020809104026020016040519081016040528093929190818152602001838380828437600081840152601f19601f820116905080830192505050505050509192919290803573ffffffffffffffffffffffffffffffffffffffff1690602001909291908035906020019064010000000081111561025557600080fd5b82018360208201111561026757600080fd5b8035906020019184600183028401116401000000008311171561028957600080fd5b91908080601f016020809104026020016040519081016040528093929190818152602001838380828437600081840152601f19601f820116905080830192505050505050509192919290803590602001906401000000008111156102ec57600080fd5b8201836020820111156102fe57600080fd5b8035906020019184600183028401116401000000008311171561032057600080fd5b91908080601f016020809104026020016040519081016040528093929190818152602001838380828437600081840152601f19601f8201169050808301925050505050505091929192908035906020019064010000000081111561038357600080fd5b82018360208201111561039557600080fd5b803590602001918460018302840111640100000000831117156103b757600080fd5b91908080601f016020809104026020016040519081016040528093929190818152602001838380828437600081840152601f19601f820116905080830192505050505050509192919290803573ffffffffffffffffffffffffffffffffffffffff169060200190929190803573ffffffffffffffffffffffffffffffffffffffff169060200190929190505050610b09565b005b61048d6004803603602081101561046157600080fd5b81019080803573ffffffffffffffffffffffffffffffffffffffff169060200190929190505050610f37565b604051808215151515815260200191505060405180910390f35b6104e9600480360360208110156104bd57600080fd5b81019080803573ffffffffffffffffffffffffffffffffffffffff169060200190929190505050610f4b565b604051808215151515815260200191505060405180910390f35b6105456004803603602081101561051957600080fd5b81019080803573ffffffffffffffffffffffffffffffffffffffff169060200190929190505050610f5f565b005b6106006004803603602081101561055d57600080fd5b810190808035906020019064010000000081111561057a57600080fd5b82018360208201111561058c57600080fd5b803590602001918460018302840111640100000000831117156105ae57600080fd5b91908080601f016020809104026020016040519081016040528093929190818152602001838380828437600081840152601f19601f820116905080830192505050505050509192919290505050610f7d565b005b6106446004803603602081101561061857600080fd5b81019080803573ffffffffffffffffffffffffffffffffffffffff1690602001909291905050506110aa565b005b61064e6110c8565b005b6107096004803603602081101561066657600080fd5b810190808035906020019064010000000081111561068357600080fd5b82018360208201111561069557600080fd5b803590602001918460018302840111640100000000831117156106b757600080fd5b91908080601f016020809104026020016040519081016040528093929190818152602001838380828437600081840152601f19601f8201169050808301925050505050505091929192905050506110d3565b6040518080602001806020018873ffffffffffffffffffffffffffffffffffffffff1673ffffffffffffffffffffffffffffffffffffffff1681526020018773ffffffffffffffffffffffffffffffffffffffff1673ffffffffffffffffffffffffffffffffffffffff16815260200180602001806020018060200186810386528d818151815260200191508051906020019080838360005b838110156107bd5780820151818401526020810190506107a2565b50505050905090810190601f1680156107ea5780820380516001836020036101000a031916815260200191505b5086810385528c818151815260200191508051906020019080838360005b83811015610823578082015181840152602081019050610808565b50505050905090810190601f1680156108505780820380516001836020036101000a031916815260200191505b50868103845289818151815260200191508051906020019080838360005b8381101561088957808201518184015260208101905061086e565b50505050905090810190601f1680156108b65780820380516001836020036101000a031916815260200191505b50868103835288818151815260200191508051906020019080838360005b838110156108ef5780820151818401526020810190506108d4565b50505050905090810190601f16801561091c5780820380516001836020036101000a031916815260200191505b50868103825287818151815260200191508051906020019080838360005b8381101561095557808201518184015260208101905061093a565b50505050905090810190601f1680156109825780820380516001836020036101000a031916815260200191505b509c5050505050505050505050505060405180910390f35b6109dc600480360360208110156109b057600080fd5b81019080803573ffffffffffffffffffffffffffffffffffffffff169060200190929190505050611739565b005b610a20600480360360208110156109f457600080fd5b81019080803573ffffffffffffffffffffffffffffffffffffffff169060200190929190505050611757565b604051808215151515815260200191505060405180910390f35b610a4261176b565b005b610a4c611776565b005b610b0760048036036020811015610a6457600080fd5b8101908080359060200190640100000000811115610a8157600080fd5b820183602082011115610a9357600080fd5b80359060200191846001830284011164010000000083111715610ab557600080fd5b91908080601f016020809104026020016040519081016040528093929190818152602001838380828437600081840152601f19601f820116905080830192505050505050509192919290505050611781565b005b610b11611c7d565b6040518061014001604052808a81526020018981526020018873ffffffffffffffffffffffffffffffffffffffff1681526020018873ffffffffffffffffffffffffffffffffffffffff16815260200187815260200186815260200185815260200160006002811115610b8057fe5b81526020018473ffffffffffffffffffffffffffffffffffffffff1681526020018373ffffffffffffffffffffffffffffffffffffffff1681525090508060058a6040518082805190602001908083835b60208310610bf45780518252602082019150602081019050602083039250610bd1565b6001836020036101000a03801982511681845116808217855250505050505090500191505090815260200160405180910390206000820151816000019080519060200190610c43929190611d33565b506020820151816001019080519060200190610c60929190611d33565b5060408201518160020160006101000a81548173ffffffffffffffffffffffffffffffffffffffff021916908373ffffffffffffffffffffffffffffffffffffffff16021790555060608201518160030160006101000a81548173ffffffffffffffffffffffffffffffffffffffff021916908373ffffffffffffffffffffffffffffffffffffffff1602179055506080820151816004019080519060200190610d0b929190611d33565b5060a0820151816005019080519060200190610d28929190611d33565b5060c0820151816006019080519060200190610d45929190611d33565b5060e08201518160070160006101000a81548160ff02191690836002811115610d6a57fe5b02179055506101008201518160070160016101000a81548173ffffffffffffffffffffffffffffffffffffffff021916908373ffffffffffffffffffffffffffffffffffffffff1602179055506101208201518160080160006101000a81548173ffffffffffffffffffffffffffffffffffffffff021916908373ffffffffffffffffffffffffffffffffffffffff160217905550905050600060058a6040518082805190602001908083835b60208310610e3a5780518252602082019150602081019050602083039250610e17565b6001836020036101000a038019825116818451168082178552505050505050905001915050908152602001604051809103902060070160006101000a81548160ff02191690836002811115610e8b57fe5b02179055507f1799535f7a29ce07cbb39c3b734f6f1164b1fd38f7f91d0a1253840c7f1e8c44896040518080602001828103825283818151815260200191508051906020019080838360005b83811015610ef2578082015181840152602081019050610ed7565b50505050905090810190601f168015610f1f5780820380516001836020036101000a031916815260200191505b509250505060405180910390a1505050505050505050565b6000610f446001836118ae565b9050919050565b6000610f586000836118ae565b9050919050565b610f6833610f4b565b610f7157600080fd5b610f7a81611940565b50565b60016005826040518082805190602001908083835b60208310610fb55780518252602082019150602081019050602083039250610f92565b6001836020036101000a038019825116818451168082178552505050505050905001915050908152602001604051809103902060070160006101000a81548160ff0219169083600281111561100657fe5b02179055507f3ea707e6edd0cf74fca91798b1efc0fd5dbf0627e3ce3f8d016c7d2d9d4107f6816040518080602001828103825283818151815260200191508051906020019080838360005b8381101561106d578082015181840152602081019050611052565b50505050905090810190601f16801561109a5780820380516001836020036101000a031916815260200191505b509250505060405180910390a150565b6110b333610f37565b6110bc57600080fd5b6110c581611991565b50565b6110d1336119e2565b565b60608060008060608060606005886040518082805190602001908083835b6020831061111457805182526020820191506020810190506020830392506110f1565b6001836020036101000a03801982511681845116808217855250505050505090500191505090815260200160405180910390206000016005896040518082805190602001908083835b60208310611180578051825260208201915060208101905060208303925061115d565b6001836020036101000a038019825116818451168082178552505050505050905001915050908152602001604051809103902060010160058a6040518082805190602001908083835b602083106111ec57805182526020820191506020810190506020830392506111c9565b6001836020036101000a038019825116818451168082178552505050505050905001915050908152602001604051809103902060020160009054906101000a900473ffffffffffffffffffffffffffffffffffffffff1660058b6040518082805190602001908083835b602083106112795780518252602082019150602081019050602083039250611256565b6001836020036101000a038019825116818451168082178552505050505050905001915050908152602001604051809103902060030160009054906101000a900473ffffffffffffffffffffffffffffffffffffffff1660058c6040518082805190602001908083835b6020831061130657805182526020820191506020810190506020830392506112e3565b6001836020036101000a038019825116818451168082178552505050505050905001915050908152602001604051809103902060040160058d6040518082805190602001908083835b60208310611372578051825260208201915060208101905060208303925061134f565b6001836020036101000a038019825116818451168082178552505050505050905001915050908152602001604051809103902060050160058e6040518082805190602001908083835b602083106113de57805182526020820191506020810190506020830392506113bb565b6001836020036101000a0380198251168184511680821785525050505050509050019150509081526020016040518091039020600601868054600181600116156101000203166002900480601f0160208091040260200160405190810160405280929190818152602001828054600181600116156101000203166002900480156114a95780601f1061147e576101008083540402835291602001916114a9565b820191906000526020600020905b81548152906001019060200180831161148c57829003601f168201915b50505050509650858054600181600116156101000203166002900480601f0160208091040260200160405190810160405280929190818152602001828054600181600116156101000203166002900480156115455780601f1061151a57610100808354040283529160200191611545565b820191906000526020600020905b81548152906001019060200180831161152857829003601f168201915b50505050509550828054600181600116156101000203166002900480601f0160208091040260200160405190810160405280929190818152602001828054600181600116156101000203166002900480156115e15780601f106115b6576101008083540402835291602001916115e1565b820191906000526020600020905b8154815290600101906020018083116115c457829003601f168201915b50505050509250818054600181600116156101000203166002900480601f01602080910402602001604051908101604052809291908181526020018280546001816001161561010002031660029004801561167d5780601f106116525761010080835404028352916020019161167d565b820191906000526020600020905b81548152906001019060200180831161166057829003601f168201915b50505050509150808054600181600116156101000203166002900480601f0160208091040260200160405190810160405280929190818152602001828054600181600116156101000203166002900480156117195780601f106116ee57610100808354040283529160200191611719565b820191906000526020600020905b8154815290600101906020018083116116fc57829003601f168201915b505050505090509650965096509650965096509650919395979092949650565b61174233611757565b61174b57600080fd5b61175481611a33565b50565b60006117646002836118ae565b9050919050565b61177433611a84565b565b61177f33611ad5565b565b60026005826040518082805190602001908083835b602083106117b95780518252602082019150602081019050602083039250611796565b6001836020036101000a038019825116818451168082178552505050505050905001915050908152602001604051809103902060070160006101000a81548160ff0219169083600281111561180a57fe5b02179055507fe849b0af4ecf208b975210b68de7f7e7a16da0804e997c5586fd91397ea96f5a816040518080602001828103825283818151815260200191508051906020019080838360005b83811015611871578082015181840152602081019050611856565b50505050905090810190601f16801561189e5780820380516001836020036101000a031916815260200191505b509250505060405180910390a150565b60008073ffffffffffffffffffffffffffffffffffffffff168273ffffffffffffffffffffffffffffffffffffffff1614156118e957600080fd5b8260000160008373ffffffffffffffffffffffffffffffffffffffff1673ffffffffffffffffffffffffffffffffffffffff16815260200190815260200160002060009054906101000a900460ff16905092915050565b61194b600082611b26565b8073ffffffffffffffffffffffffffffffffffffffff167f19ef9a4877199f89440a26acb26895ec02ed86f2df1aeaa90dc18041b892f71f60405160405180910390a250565b61199c600182611b26565b8073ffffffffffffffffffffffffffffffffffffffff167f561138658ca49a8540dc70dcfe64c9026c1c5b9344642242dd6562970f9c127860405160405180910390a250565b6119ed600282611bd2565b8073ffffffffffffffffffffffffffffffffffffffff167f126174f6cf49c81cdb4a9214c6b8f037bef55b4ec31e4fc776cea2a1c8a88d5960405160405180910390a250565b611a3e600282611b26565b8073ffffffffffffffffffffffffffffffffffffffff167fddbf200aa634dc3fb81cfd68583dd1040d1c751d335e1d86b631bde3e977fea860405160405180910390a250565b611a8f600182611bd2565b8073ffffffffffffffffffffffffffffffffffffffff167f2fed5abf6a80d6dfe30b4895481b2fc5d7dce5f8f7b931832f4a2947d5040c7f60405160405180910390a250565b611ae0600082611bd2565b8073ffffffffffffffffffffffffffffffffffffffff167fe9dce8c992623ce791725b21e857e33248d1f190a25b5168313420eebdaae99d60405160405180910390a250565b600073ffffffffffffffffffffffffffffffffffffffff168173ffffffffffffffffffffffffffffffffffffffff161415611b6057600080fd5b611b6a82826118ae565b15611b7457600080fd5b60018260000160008373ffffffffffffffffffffffffffffffffffffffff1673ffffffffffffffffffffffffffffffffffffffff16815260200190815260200160002060006101000a81548160ff0219169083151502179055505050565b600073ffffffffffffffffffffffffffffffffffffffff168173ffffffffffffffffffffffffffffffffffffffff161415611c0c57600080fd5b611c1682826118ae565b611c1f57600080fd5b60008260000160008373ffffffffffffffffffffffffffffffffffffffff1673ffffffffffffffffffffffffffffffffffffffff16815260200190815260200160002060006101000a81548160ff0219169083151502179055505050565b6040518061014001604052806060815260200160608152602001600073ffffffffffffffffffffffffffffffffffffffff168152602001600073ffffffffffffffffffffffffffffffffffffffff16815260200160608152602001606081526020016060815260200160006002811115611cf357fe5b8152602001600073ffffffffffffffffffffffffffffffffffffffff168152602001600073ffffffffffffffffffffffffffffffffffffffff1681525090565b828054600181600116156101000203166002900490600052602060002090601f016020900481019282601f10611d7457805160ff1916838001178555611da2565b82800160010185558215611da2579182015b82811115611da1578251825591602001919060010190611d86565b5b509050611daf9190611db3565b5090565b611dd591905b80821115611dd1576000816000905550600101611db9565b5090565b9056fea265627a7a723158203b95db10f61862bb5792344c757382668ca589e45802987be04f84f191d1cdf064736f6c63430005100032",
  "source": "pragma solidity ^0.5.16;\r\nimport \"../medicineaccess/Roles.sol\";\r\nimport \"../medicineaccess/DistributorRole.sol\";\r\nimport \"../medicineaccess/ManufacturerRole.sol\";\r\nimport \"../medicineaccess/UserRole.sol\";\r\nimport \"../medicinecore/ownable.sol\";\r\n\r\ncontract main is UserRole, ManufacturerRole, DistributorRole {\r\n\r\n  // Define 'owner'\r\n  address owner;\r\n\r\n  // Define a variable called 'batchno' for unique authentication\r\n  string batchno;\r\n\r\n  // Define a public mapping 'medicines' that maps the batchno to an Medicine.\r\n  mapping (string => Medicine) medicines;\r\n\r\n  // Define a public mapping 'medicinesHistory' that maps the UPC to an array of TxHash, \r\n  // that track its journey through the supply chain -- to be sent from DApp.\r\n  mapping (string => string[]) medicinesHistory;\r\n  \r\n  // Define enum 'State' with the following values:\r\n  enum State\r\n  { \r\n    Made,       // 0\r\n    Packed,     // 1\r\n    Sold       // 2\r\n  }\r\n\r\n  State constant defaultState = State.Made;\r\n\r\n  // Define a struct 'Medicine' with the following fields:\r\n  struct Medicine {\r\n    string  batchno;  //the primary key batchno \r\n    string  medicineName; //Medicine name\r\n    address ownerID;  // Metamask-Ethereum address of the current owner as the medicine moves through 3 stages\r\n    address originManufacturerID; // Metamask-Ethereum address of the Manufacturer\r\n    string  FactoryName; // Manufacturer Name\r\n    string  mfgdate;//mfgdate\r\n    string  expdate; // expdate\r\n    State   medicineState;  // Product State as represented in the enum above\r\n    address distributorID;  // Metamask-Ethereum address of the Distributor\r\n    address userID; // Metamask-Ethereum address of the user\r\n  }\r\n\r\n  // Define 8 events with the same 7 state values and accept 'batchno' as input argument\r\n  event Made(string batchno);\r\n  event Packed(string batchno);\r\n  event Sold(string batchno);\r\n\r\n  // Define a modifer that checks to see if msg.sender == owner of the contract\r\n  modifier onlyOwner() {\r\n    require(msg.sender == owner);\r\n    _;\r\n  }\r\n\r\n  // Define a modifer that verifies the Caller\r\n  modifier verifyCaller (address _address) {\r\n    require(msg.sender == _address); \r\n    _;\r\n  }\r\n\r\n  // Define a modifier that checks if an medicine.state of a batchno is Made\r\n  modifier made(string storage _batchno) {\r\n    require(medicines[_batchno].medicineState == State.Made);\r\n    _;\r\n  }\r\n  \r\n  // Define a modifier that checks if an medicine.state of a batchno is Packed\r\n  modifier packed(string storage _batchno) {\r\n    require(medicines[_batchno].medicineState == State.Packed);\r\n\r\n    _;\r\n  }\r\n\r\n  // Define a modifier that checks if an medicine.state of a batchno is Sold\r\n  modifier sold(string storage  _batchno) {\r\n    require(medicines[_batchno].medicineState == State.Sold);\r\n\r\n    _;\r\n  }\r\n\r\n  // Define a function 'makeMedicine' that allows a manufacturer to mark a medicine 'Made'\r\n  function makeMedicine(string memory _batchno, string memory _medicineName, address  _originManufacturerID, string memory _FactoryName, string memory _mfgdate,string memory _expdate,address _distributorID,address _userID) public\r\n  \r\n  //onlymanufacturer\r\n\r\n  {\r\n    // Add the new medicine as part of medicines\r\n    Medicine memory makeMedicine = Medicine({\r\n      batchno:_batchno,  \r\n      medicineName:_medicineName,\r\n      ownerID:_originManufacturerID,  // Metamask-Ethereum address of the current owner as the medicine moves through 3 stages\r\n      originManufacturerID:_originManufacturerID, // Metamask-Ethereum address of the Manufacturer\r\n      FactoryName:_FactoryName, // Manufacturer Name\r\n      mfgdate:_mfgdate,//mfgdate\r\n      expdate:_expdate,//expdate\r\n      medicineState: State.Made,\r\n      distributorID: _distributorID, \r\n      userID: _userID\r\n\r\n      });\r\n    medicines[_batchno] = makeMedicine;\r\n    medicines[_batchno].medicineState = State.Made;\r\n\r\n//     string batchno;//batchno\r\n//     address ownerID;  // Metamask-Ethereum address of the current owner as the medicine moves through 8 stages\r\n//     address originManufacturerID; // Metamask-Ethereum address of the Manufacturer\r\n//     string  FactoryName; // Manufacturer Name\r\n//     string  medicineName; // Product Name\r\n//     string  mfgdate//mfgdate\r\n//     string  expdate//expdate\r\n//     State   medicineState;  // Product State as represented in the enum above\r\n//     address distributorID;  // Metamask-Ethereum address of the Distributor\r\n//     address userID; // Metamask-Ethereum address of the Patient\r\n\r\n\r\n    // Emit the appropriate event\r\n\r\n    emit Made(_batchno);\r\n  }\r\n  // Define a function 'packMedicine' that allows a manufacturer to mark an medicine 'Packed'\r\n  function packMedicine(string  memory _batchno) public \r\n  // Call modifier to check if batchno has passed previous supply chain stage\r\n  //Made(_batchno)\r\n  // Call modifier to verify caller of this function\r\n  {\r\n    // Update the appropriate fields\r\n    medicines[_batchno].medicineState = State.Packed;\r\n\r\n    // Emit the appropriate event\r\n    emit Packed(_batchno);\r\n  }\r\n  function receiveMedicine(string memory _batchno) public \r\n    // Call modifier to check if batchno has passed previous supply chain stage\r\n    //Packed(_batchno)\r\n    // Access Control List enforced by calling Smart Contract / DApp\r\n    {\r\n    medicines[_batchno].medicineState = State.Sold;\r\n\r\n    // Emit the appropriate event\r\n    emit Sold(_batchno);\r\n  }\r\n  function fetchMedicineBufferOne(string memory _batchno) public view returns \r\n  (\r\n    string memory batchno,  //the primary key batchno \r\n    string memory  medicineName, //Medicine name\r\n    address ownerID,  // Metamask-Ethereum address of the current owner as the medicine moves through 3 stages\r\n    address originManufacturerID, // Metamask-Ethereum address of the Manufacturer\r\n    string memory FactoryName, // Manufacturer Name\r\n    string memory mfgdate,//mfgdate\r\n    string memory expdate // expdate\r\n    ) \r\n  {\r\n  // Assign values to the 7 parameters\r\n  \r\n\r\n  return \r\n  (\r\n    medicines[_batchno].batchno,\r\n    medicines[_batchno].medicineName,\r\n    medicines[_batchno].ownerID,\r\n    medicines[_batchno].originManufacturerID,\r\n    medicines[_batchno].FactoryName,\r\n    medicines[_batchno].mfgdate,\r\n    medicines[_batchno].expdate\r\n    // medicines[_batchno].\r\n    );\r\n}\r\n}",
  "sourcePath": "F:/fakequipo/fakequipo/contracts/medicinebase/main.sol",
  "compiler": {
    "name": "solc",
    "version": "0.5.16+commit.9c3226ce.Emscripten.clang"
  },
  "schemaVersion": "3.3.4",
  "updatedAt": "2021-04-11T09:43:53.983Z",
  "networkType": "ethereum",
  "devdoc": {
    "methods": {}
  },
  "userdoc": {
    "methods": {}
  }
}